{
  "_format": "hh-sol-artifact-1",
  "contractName": "APIConsumer_2",
  "sourceName": "contracts/APIConsumer_2.sol",
  "abi": [
    {
      "inputs": [],
      "stateMutability": "nonpayable",
      "type": "constructor"
    },
    {
      "anonymous": false,
      "inputs": [
        {
          "indexed": true,
          "internalType": "bytes32",
          "name": "id",
          "type": "bytes32"
        }
      ],
      "name": "ChainlinkCancelled",
      "type": "event"
    },
    {
      "anonymous": false,
      "inputs": [
        {
          "indexed": true,
          "internalType": "bytes32",
          "name": "id",
          "type": "bytes32"
        }
      ],
      "name": "ChainlinkFulfilled",
      "type": "event"
    },
    {
      "anonymous": false,
      "inputs": [
        {
          "indexed": true,
          "internalType": "bytes32",
          "name": "id",
          "type": "bytes32"
        }
      ],
      "name": "ChainlinkRequested",
      "type": "event"
    },
    {
      "anonymous": false,
      "inputs": [
        {
          "indexed": true,
          "internalType": "address",
          "name": "from",
          "type": "address"
        },
        {
          "indexed": true,
          "internalType": "address",
          "name": "to",
          "type": "address"
        }
      ],
      "name": "OwnershipTransferRequested",
      "type": "event"
    },
    {
      "anonymous": false,
      "inputs": [
        {
          "indexed": true,
          "internalType": "address",
          "name": "from",
          "type": "address"
        },
        {
          "indexed": true,
          "internalType": "address",
          "name": "to",
          "type": "address"
        }
      ],
      "name": "OwnershipTransferred",
      "type": "event"
    },
    {
      "anonymous": false,
      "inputs": [
        {
          "indexed": true,
          "internalType": "bytes32",
          "name": "requestId",
          "type": "bytes32"
        },
        {
          "indexed": true,
          "internalType": "uint256",
          "name": "value",
          "type": "uint256"
        }
      ],
      "name": "RequestValue",
      "type": "event"
    },
    {
      "inputs": [],
      "name": "acceptOwnership",
      "outputs": [],
      "stateMutability": "nonpayable",
      "type": "function"
    },
    {
      "inputs": [
        {
          "internalType": "bytes32",
          "name": "_requestId",
          "type": "bytes32"
        },
        {
          "internalType": "uint256",
          "name": "_value",
          "type": "uint256"
        }
      ],
      "name": "fulfillValue",
      "outputs": [],
      "stateMutability": "nonpayable",
      "type": "function"
    },
    {
      "inputs": [],
      "name": "owner",
      "outputs": [
        {
          "internalType": "address",
          "name": "",
          "type": "address"
        }
      ],
      "stateMutability": "view",
      "type": "function"
    },
    {
      "inputs": [
        {
          "internalType": "string",
          "name": "_url",
          "type": "string"
        },
        {
          "internalType": "string",
          "name": "_path",
          "type": "string"
        }
      ],
      "name": "requestValue",
      "outputs": [],
      "stateMutability": "nonpayable",
      "type": "function"
    },
    {
      "inputs": [
        {
          "internalType": "address",
          "name": "_oracle",
          "type": "address"
        },
        {
          "internalType": "string",
          "name": "_jobId",
          "type": "string"
        }
      ],
      "name": "setOracleJobFee",
      "outputs": [],
      "stateMutability": "nonpayable",
      "type": "function"
    },
    {
      "inputs": [
        {
          "internalType": "address",
          "name": "to",
          "type": "address"
        }
      ],
      "name": "transferOwnership",
      "outputs": [],
      "stateMutability": "nonpayable",
      "type": "function"
    },
    {
      "inputs": [],
      "name": "value",
      "outputs": [
        {
          "internalType": "uint256",
          "name": "",
          "type": "uint256"
        }
      ],
      "stateMutability": "view",
      "type": "function"
    }
  ],
  "bytecode": "0x608060405260016004553480156200001657600080fd5b50338060008073ffffffffffffffffffffffffffffffffffffffff168273ffffffffffffffffffffffffffffffffffffffff1614156200008d576040517f08c379a0000000000000000000000000000000000000000000000000000000008152600401620000849062000383565b60405180910390fd5b81600660006101000a81548173ffffffffffffffffffffffffffffffffffffffff021916908373ffffffffffffffffffffffffffffffffffffffff160217905550600073ffffffffffffffffffffffffffffffffffffffff168173ffffffffffffffffffffffffffffffffffffffff161462000115576200011481620001bf60201b60201c565b5b5050506200013d7301be23585060835e02b77ef475b0cc51aa1e0709620002f160201b60201c565b73d0691a51e3c6c562691d3c44c2944bd9d368ec1f600960006101000a81548173ffffffffffffffffffffffffffffffffffffffff021916908373ffffffffffffffffffffffffffffffffffffffff1602179055507f3633356535356136366565363466323539376266356461313137306632383234600a819055506200042a565b3373ffffffffffffffffffffffffffffffffffffffff168173ffffffffffffffffffffffffffffffffffffffff16141562000231576040517f08c379a00000000000000000000000000000000000000000000000000000000081526004016200022890620003a5565b60405180910390fd5b80600760006101000a81548173ffffffffffffffffffffffffffffffffffffffff021916908373ffffffffffffffffffffffffffffffffffffffff1602179055508073ffffffffffffffffffffffffffffffffffffffff16600660009054906101000a900473ffffffffffffffffffffffffffffffffffffffff1673ffffffffffffffffffffffffffffffffffffffff167fed8889f560326eb138920d842192f0eb3dd22b4f139c87a2c57538e05bae127860405160405180910390a350565b80600260006101000a81548173ffffffffffffffffffffffffffffffffffffffff021916908373ffffffffffffffffffffffffffffffffffffffff16021790555050565b600062000344601883620003c7565b91506200035182620003d8565b602082019050919050565b60006200036b601783620003c7565b9150620003788262000401565b602082019050919050565b600060208201905081810360008301526200039e8162000335565b9050919050565b60006020820190508181036000830152620003c0816200035c565b9050919050565b600082825260208201905092915050565b7f43616e6e6f7420736574206f776e657220746f207a65726f0000000000000000600082015250565b7f43616e6e6f74207472616e7366657220746f2073656c66000000000000000000600082015250565b611f43806200043a6000396000f3fe608060405234801561001057600080fd5b506004361061007d5760003560e01c80637ee7c7261161005b5780637ee7c726146100c65780638da5cb5b146100e2578063c1585ce214610100578063f2fde38b1461011c5761007d565b80633fa4f24514610082578063677703a5146100a057806379ba5097146100bc575b600080fd5b61008a610138565b6040516100979190611784565b60405180910390f35b6100ba60048036038101906100b59190611347565b61013e565b005b6100c461019a565b005b6100e060048036038101906100db9190611410565b610331565b005b6100ea61048f565b6040516100f79190611606565b60405180910390f35b61011a600480360381019061011591906113d0565b6104b9565b005b6101366004803603810190610131919061131a565b6105f8565b005b60085481565b61014661060c565b81600960006101000a81548173ffffffffffffffffffffffffffffffffffffffff021916908373ffffffffffffffffffffffffffffffffffffffff1602179055506101908161069e565b600a819055505050565b600760009054906101000a900473ffffffffffffffffffffffffffffffffffffffff1673ffffffffffffffffffffffffffffffffffffffff163373ffffffffffffffffffffffffffffffffffffffff161461022a576040517f08c379a0000000000000000000000000000000000000000000000000000000008152600401610221906116e4565b60405180910390fd5b6000600660009054906101000a900473ffffffffffffffffffffffffffffffffffffffff16905033600660006101000a81548173ffffffffffffffffffffffffffffffffffffffff021916908373ffffffffffffffffffffffffffffffffffffffff1602179055506000600760006101000a81548173ffffffffffffffffffffffffffffffffffffffff021916908373ffffffffffffffffffffffffffffffffffffffff1602179055503373ffffffffffffffffffffffffffffffffffffffff168173ffffffffffffffffffffffffffffffffffffffff167f8be0079c531659141344cd1fd0a4f28419497f9722a3daafe3b4186f6b6457e060405160405180910390a350565b61033961060c565b600061034f600a543063c1585ce260e01b6106c8565b905061039b6040518060400160405280600381526020017f676574000000000000000000000000000000000000000000000000000000000081525084836106f99092919063ffffffff16565b6103e56040518060400160405280600481526020017f706174680000000000000000000000000000000000000000000000000000000081525083836106f99092919063ffffffff16565b6104306040518060400160405280600881526020017f6d756c7469706c7900000000000000000000000000000000000000000000000081525060018361072c9092919063ffffffff16565b610489600960009054906101000a900473ffffffffffffffffffffffffffffffffffffffff168260056064670de0b6b3a764000060016104709190611a1a565b61047a9190611878565b6104849190611a1a565b61075f565b50505050565b6000600660009054906101000a900473ffffffffffffffffffffffffffffffffffffffff16905090565b816005600082815260200190815260200160002060009054906101000a900473ffffffffffffffffffffffffffffffffffffffff1673ffffffffffffffffffffffffffffffffffffffff163373ffffffffffffffffffffffffffffffffffffffff161461055b576040517f08c379a000000000000000000000000000000000000000000000000000000000815260040161055290611764565b60405180910390fd5b6005600082815260200190815260200160002060006101000a81549073ffffffffffffffffffffffffffffffffffffffff0219169055807f7cc135e0cebb02c3480ae5d74d377283180a2601f8f644edf7987b009316c63a60405160405180910390a281837f18bbbb84e3377ef5571d4752248b89a6c8fc102267139c9012e250a82da7520a60405160405180910390a381600881905550505050565b61060061060c565b6106098161082b565b50565b600660009054906101000a900473ffffffffffffffffffffffffffffffffffffffff1673ffffffffffffffffffffffffffffffffffffffff163373ffffffffffffffffffffffffffffffffffffffff161461069c576040517f08c379a000000000000000000000000000000000000000000000000000000000815260040161069390611724565b60405180910390fd5b565b6000808290506000815114156106ba576000801b9150506106c3565b60208301519150505b919050565b6106d06111cf565b6106d86111cf565b6106ef8585858461095a909392919063ffffffff16565b9150509392505050565b610710828460800151610a0a90919063ffffffff16565b610727818460800151610a0a90919063ffffffff16565b505050565b610743828460800151610a0a90919063ffffffff16565b61075a818460800151610a2f90919063ffffffff16565b505050565b60008060045490506001816107749190611822565b6004819055506000634042994660e01b60008087600001513089604001518760018c60800151600001516040516024016107b5989796959493929190611621565b604051602081830303815290604052907bffffffffffffffffffffffffffffffffffffffffffffffffffffffff19166020820180517bffffffffffffffffffffffffffffffffffffffffffffffffffffffff8381831617835250505050905061082086838684610adc565b925050509392505050565b3373ffffffffffffffffffffffffffffffffffffffff168173ffffffffffffffffffffffffffffffffffffffff16141561089a576040517f08c379a000000000000000000000000000000000000000000000000000000000815260040161089190611744565b60405180910390fd5b80600760006101000a81548173ffffffffffffffffffffffffffffffffffffffff021916908373ffffffffffffffffffffffffffffffffffffffff1602179055508073ffffffffffffffffffffffffffffffffffffffff16600660009054906101000a900473ffffffffffffffffffffffffffffffffffffffff1673ffffffffffffffffffffffffffffffffffffffff167fed8889f560326eb138920d842192f0eb3dd22b4f139c87a2c57538e05bae127860405160405180910390a350565b6109626111cf565b6109728560800151610100610c80565b508385600001818152505082856020019073ffffffffffffffffffffffffffffffffffffffff16908173ffffffffffffffffffffffffffffffffffffffff16815250508185604001907bffffffffffffffffffffffffffffffffffffffffffffffffffffffff191690817bffffffffffffffffffffffffffffffffffffffffffffffffffffffff191681525050849050949350505050565b610a178260038351610cea565b610a2a8183610e6f90919063ffffffff16565b505050565b7fffffffffffffffffffffffffffffffffffffffffffffffff0000000000000000811215610a6657610a618282610e91565b610ad8565b67ffffffffffffffff811315610a8557610a808282610f08565b610ad7565b60008112610a9e57610a9982600083610cea565b610ad6565b610ad5826001837fffffffffffffffffffffffffffffffffffffffffffffffffffffffffffffffff610ad09190611a74565b610cea565b5b5b5b5050565b60003084604051602001610af19291906115da565b604051602081830303815290604052805190602001209050846005600083815260200190815260200160002060006101000a81548173ffffffffffffffffffffffffffffffffffffffff021916908373ffffffffffffffffffffffffffffffffffffffff160217905550807fb5e6e01e79f91267dc17b4e6314d5d4d03593d2ceee0fbb452b750bd70ea5af960405160405180910390a2600260009054906101000a900473ffffffffffffffffffffffffffffffffffffffff1673ffffffffffffffffffffffffffffffffffffffff16634000aea08685856040518463ffffffff1660e01b8152600401610be7939291906116a6565b602060405180830381600087803b158015610c0157600080fd5b505af1158015610c15573d6000803e3d6000fd5b505050506040513d601f19601f82011682018060405250810190610c3991906113a3565b610c78576040517f08c379a0000000000000000000000000000000000000000000000000000000008152600401610c6f90611704565b60405180910390fd5b949350505050565b610c8861123c565b6000602083610c979190611c9b565b14610cc357602082610ca99190611c9b565b6020610cb59190611b08565b82610cc09190611822565b91505b81836020018181525050604051808452600081528281016020016040525082905092915050565b60178167ffffffffffffffff1611610d2157610d1b8160058460ff16901b60ff161784610f5490919063ffffffff16565b50610e6a565b60ff8167ffffffffffffffff1611610d7757610d50601860058460ff16901b1784610f5490919063ffffffff16565b50610d718167ffffffffffffffff16600185610f749092919063ffffffff16565b50610e69565b61ffff8167ffffffffffffffff1611610dce57610da7601960058460ff16901b1784610f5490919063ffffffff16565b50610dc88167ffffffffffffffff16600285610f749092919063ffffffff16565b50610e68565b63ffffffff8167ffffffffffffffff1611610e2757610e00601a60058460ff16901b1784610f5490919063ffffffff16565b50610e218167ffffffffffffffff16600485610f749092919063ffffffff16565b50610e67565b610e44601b60058460ff16901b1784610f5490919063ffffffff16565b50610e658167ffffffffffffffff16600885610f749092919063ffffffff16565b505b5b5b5b505050565b610e7761123c565b610e8983846000015151848551610f96565b905092915050565b610eaf60036005600660ff16901b1783610f5490919063ffffffff16565b50610f0482827fffffffffffffffffffffffffffffffffffffffffffffffffffffffffffffffff610ee09190611a74565b604051602001610ef09190611784565b604051602081830303815290604052611085565b5050565b610f2660026005600660ff16901b1783610f5490919063ffffffff16565b50610f508282604051602001610f3c9190611784565b604051602081830303815290604052611085565b5050565b610f5c61123c565b610f6c83846000015151846110aa565b905092915050565b610f7c61123c565b610f8d848560000151518585611101565b90509392505050565b610f9e61123c565b8251821115610fac57600080fd5b84602001518285610fbd9190611822565b1115610ff257610ff1856002610fe288602001518887610fdd9190611822565b61118f565b610fec9190611a1a565b6111ab565b5b6000808651805187602083010193508088870111156110115787860182525b60208701925050505b6020841061105857805182526020826110339190611822565b91506020816110429190611822565b90506020846110519190611b08565b935061101a565b60006001856020036101000a03905080198251168184511681811785525050508692505050949350505050565b6110928260028351610cea565b6110a58183610e6f90919063ffffffff16565b505050565b6110b261123c565b836020015183106110d8576110d784600286602001516110d29190611a1a565b6111ab565b5b83518051602085830101848153818614156110f4576001820183525b5050508390509392505050565b61110961123c565b8460200151848361111a9190611822565b11156111425761114185600286856111329190611822565b61113c9190611a1a565b6111ab565b5b600060018361010061115491906118fc565b61115e9190611b08565b905085518386820101858319825116178152815185880111156111815784870182525b505085915050949350505050565b6000818311156111a1578290506111a5565b8190505b92915050565b6000826000015190506111be8383610c80565b506111c98382610e6f565b50505050565b6040518060a0016040528060008019168152602001600073ffffffffffffffffffffffffffffffffffffffff16815260200160007bffffffffffffffffffffffffffffffffffffffffffffffffffffffff191681526020016000815260200161123661123c565b81525090565b604051806040016040528060608152602001600081525090565b6000611269611264846117c4565b61179f565b90508281526020810184848401111561128557611284611d5e565b5b611290848285611bfa565b509392505050565b6000813590506112a781611eb1565b92915050565b6000815190506112bc81611ec8565b92915050565b6000813590506112d181611edf565b92915050565b600082601f8301126112ec576112eb611d59565b5b81356112fc848260208601611256565b91505092915050565b60008135905061131481611ef6565b92915050565b6000602082840312156113305761132f611d68565b5b600061133e84828501611298565b91505092915050565b6000806040838503121561135e5761135d611d68565b5b600061136c85828601611298565b925050602083013567ffffffffffffffff81111561138d5761138c611d63565b5b611399858286016112d7565b9150509250929050565b6000602082840312156113b9576113b8611d68565b5b60006113c7848285016112ad565b91505092915050565b600080604083850312156113e7576113e6611d68565b5b60006113f5858286016112c2565b925050602061140685828601611305565b9150509250929050565b6000806040838503121561142757611426611d68565b5b600083013567ffffffffffffffff81111561144557611444611d63565b5b611451858286016112d7565b925050602083013567ffffffffffffffff81111561147257611471611d63565b5b61147e858286016112d7565b9150509250929050565b61149181611b3c565b82525050565b6114a081611b5a565b82525050565b6114af81611b64565b82525050565b60006114c0826117f5565b6114ca8185611800565b93506114da818560208601611c09565b6114e381611d6d565b840191505092915050565b6114ff6114fa82611bc4565b611c6d565b82525050565b6000611512601683611811565b915061151d82611d98565b602082019050919050565b6000611535602383611811565b915061154082611dc1565b604082019050919050565b6000611558601683611811565b915061156382611e10565b602082019050919050565b600061157b601783611811565b915061158682611e39565b602082019050919050565b600061159e602883611811565b91506115a982611e62565b604082019050919050565b6115bd81611bba565b82525050565b6115d46115cf82611bba565b611c91565b82525050565b60006115e682856114ee565b6014820191506115f682846115c3565b6020820191508190509392505050565b600060208201905061161b6000830184611488565b92915050565b600061010082019050611637600083018b611488565b611644602083018a6115b4565b6116516040830189611497565b61165e6060830188611488565b61166b60808301876114a6565b61167860a08301866115b4565b61168560c08301856115b4565b81810360e083015261169781846114b5565b90509998505050505050505050565b60006060820190506116bb6000830186611488565b6116c860208301856115b4565b81810360408301526116da81846114b5565b9050949350505050565b600060208201905081810360008301526116fd81611505565b9050919050565b6000602082019050818103600083015261171d81611528565b9050919050565b6000602082019050818103600083015261173d8161154b565b9050919050565b6000602082019050818103600083015261175d8161156e565b9050919050565b6000602082019050818103600083015261177d81611591565b9050919050565b600060208201905061179960008301846115b4565b92915050565b60006117a96117ba565b90506117b58282611c3c565b919050565b6000604051905090565b600067ffffffffffffffff8211156117df576117de611d2a565b5b6117e882611d6d565b9050602081019050919050565b600081519050919050565b600082825260208201905092915050565b600082825260208201905092915050565b600061182d82611bba565b915061183883611bba565b9250827fffffffffffffffffffffffffffffffffffffffffffffffffffffffffffffffff0382111561186d5761186c611ccc565b5b828201905092915050565b600061188382611bba565b915061188e83611bba565b92508261189e5761189d611cfb565b5b828204905092915050565b6000808291508390505b60018511156118f3578086048111156118cf576118ce611ccc565b5b60018516156118de5780820291505b80810290506118ec85611d8b565b94506118b3565b94509492505050565b600061190782611bba565b915061191283611bba565b925061193f7fffffffffffffffffffffffffffffffffffffffffffffffffffffffffffffffff8484611947565b905092915050565b6000826119575760019050611a13565b816119655760009050611a13565b816001811461197b5760028114611985576119b4565b6001915050611a13565b60ff84111561199757611996611ccc565b5b8360020a9150848211156119ae576119ad611ccc565b5b50611a13565b5060208310610133831016604e8410600b84101617156119e95782820a9050838111156119e4576119e3611ccc565b5b611a13565b6119f684848460016118a9565b92509050818404811115611a0d57611a0c611ccc565b5b81810290505b9392505050565b6000611a2582611bba565b9150611a3083611bba565b9250817fffffffffffffffffffffffffffffffffffffffffffffffffffffffffffffffff0483118215151615611a6957611a68611ccc565b5b828202905092915050565b6000611a7f82611b90565b9150611a8a83611b90565b9250827f800000000000000000000000000000000000000000000000000000000000000001821260008412151615611ac557611ac4611ccc565b5b827f7fffffffffffffffffffffffffffffffffffffffffffffffffffffffffffffff018213600084121615611afd57611afc611ccc565b5b828203905092915050565b6000611b1382611bba565b9150611b1e83611bba565b925082821015611b3157611b30611ccc565b5b828203905092915050565b6000611b4782611b9a565b9050919050565b60008115159050919050565b6000819050919050565b60007fffffffff0000000000000000000000000000000000000000000000000000000082169050919050565b6000819050919050565b600073ffffffffffffffffffffffffffffffffffffffff82169050919050565b6000819050919050565b6000611bcf82611bd6565b9050919050565b6000611be182611be8565b9050919050565b6000611bf382611b9a565b9050919050565b82818337600083830152505050565b60005b83811015611c27578082015181840152602081019050611c0c565b83811115611c36576000848401525b50505050565b611c4582611d6d565b810181811067ffffffffffffffff82111715611c6457611c63611d2a565b5b80604052505050565b6000611c7882611c7f565b9050919050565b6000611c8a82611d7e565b9050919050565b6000819050919050565b6000611ca682611bba565b9150611cb183611bba565b925082611cc157611cc0611cfb565b5b828206905092915050565b7f4e487b7100000000000000000000000000000000000000000000000000000000600052601160045260246000fd5b7f4e487b7100000000000000000000000000000000000000000000000000000000600052601260045260246000fd5b7f4e487b7100000000000000000000000000000000000000000000000000000000600052604160045260246000fd5b600080fd5b600080fd5b600080fd5b600080fd5b6000601f19601f8301169050919050565b60008160601b9050919050565b60008160011c9050919050565b7f4d7573742062652070726f706f736564206f776e657200000000000000000000600082015250565b7f756e61626c6520746f207472616e73666572416e6443616c6c20746f206f726160008201527f636c650000000000000000000000000000000000000000000000000000000000602082015250565b7f4f6e6c792063616c6c61626c65206279206f776e657200000000000000000000600082015250565b7f43616e6e6f74207472616e7366657220746f2073656c66000000000000000000600082015250565b7f536f75726365206d75737420626520746865206f7261636c65206f662074686560008201527f2072657175657374000000000000000000000000000000000000000000000000602082015250565b611eba81611b3c565b8114611ec557600080fd5b50565b611ed181611b4e565b8114611edc57600080fd5b50565b611ee881611b5a565b8114611ef357600080fd5b50565b611eff81611bba565b8114611f0a57600080fd5b5056fea26469706673582212204032e8f58608893e527c08f74e63daa342df593ca52798b9fbe02470e4a4d0c464736f6c63430008070033",
  "linkReferences": {},
  "deployedLinkReferences": {}
}